{"contracts/Hero.sol":{"Hero":{"abi":[{"inputs":[{"internalType":"enum Hero.Class","name":"class","type":"uint8"}],"name":"createHero","outputs":[],"stateMutability":"payable","type":"function"}],"evm":{"bytecode":{"linkReferences":{},"object":"608060405234801561001057600080fd5b50610196806100206000396000f3fe60806040526004361061001e5760003560e01c80635e7e236d14610023575b600080fd5b61003d600480360381019061003891906100b6565b61003f565b005b66b1a2bc2ec50000341015610089576040517f08c379a000000000000000000000000000000000000000000000000000000000815260040161008090610140565b60405180910390fd5b50565b600080fd5b6003811061009e57600080fd5b50565b6000813590506100b081610091565b92915050565b6000602082840312156100cc576100cb61008c565b5b60006100da848285016100a1565b91505092915050565b600082825260208201905092915050565b7f4f67612c20616464206d6f6e6579000000000000000000000000000000000000600082015250565b600061012a600e836100e3565b9150610135826100f4565b602082019050919050565b600060208201905081810360008301526101598161011d565b905091905056fea26469706673582212209ac68a42a1e14c17a0ba13a82d430ca98a270395f0b3262fbb271a3ac083816564736f6c634300080a0033","opcodes":"PUSH1 0x80 PUSH1 0x40 MSTORE CALLVALUE DUP1 ISZERO PUSH2 0x10 JUMPI PUSH1 0x0 DUP1 REVERT JUMPDEST POP PUSH2 0x196 DUP1 PUSH2 0x20 PUSH1 0x0 CODECOPY PUSH1 0x0 RETURN INVALID PUSH1 0x80 PUSH1 0x40 MSTORE PUSH1 0x4 CALLDATASIZE LT PUSH2 0x1E JUMPI PUSH1 0x0 CALLDATALOAD PUSH1 0xE0 SHR DUP1 PUSH4 0x5E7E236D EQ PUSH2 0x23 JUMPI JUMPDEST PUSH1 0x0 DUP1 REVERT JUMPDEST PUSH2 0x3D PUSH1 0x4 DUP1 CALLDATASIZE SUB DUP2 ADD SWAP1 PUSH2 0x38 SWAP2 SWAP1 PUSH2 0xB6 JUMP JUMPDEST PUSH2 0x3F JUMP JUMPDEST STOP JUMPDEST PUSH7 0xB1A2BC2EC50000 CALLVALUE LT ISZERO PUSH2 0x89 JUMPI PUSH1 0x40 MLOAD PUSH32 0x8C379A000000000000000000000000000000000000000000000000000000000 DUP2 MSTORE PUSH1 0x4 ADD PUSH2 0x80 SWAP1 PUSH2 0x140 JUMP JUMPDEST PUSH1 0x40 MLOAD DUP1 SWAP2 SUB SWAP1 REVERT JUMPDEST POP JUMP JUMPDEST PUSH1 0x0 DUP1 REVERT JUMPDEST PUSH1 0x3 DUP2 LT PUSH2 0x9E JUMPI PUSH1 0x0 DUP1 REVERT JUMPDEST POP JUMP JUMPDEST PUSH1 0x0 DUP2 CALLDATALOAD SWAP1 POP PUSH2 0xB0 DUP2 PUSH2 0x91 JUMP JUMPDEST SWAP3 SWAP2 POP POP JUMP JUMPDEST PUSH1 0x0 PUSH1 0x20 DUP3 DUP5 SUB SLT ISZERO PUSH2 0xCC JUMPI PUSH2 0xCB PUSH2 0x8C JUMP JUMPDEST JUMPDEST PUSH1 0x0 PUSH2 0xDA DUP5 DUP3 DUP6 ADD PUSH2 0xA1 JUMP JUMPDEST SWAP2 POP POP SWAP3 SWAP2 POP POP JUMP JUMPDEST PUSH1 0x0 DUP3 DUP3 MSTORE PUSH1 0x20 DUP3 ADD SWAP1 POP SWAP3 SWAP2 POP POP JUMP JUMPDEST PUSH32 0x4F67612C20616464206D6F6E6579000000000000000000000000000000000000 PUSH1 0x0 DUP3 ADD MSTORE POP JUMP JUMPDEST PUSH1 0x0 PUSH2 0x12A PUSH1 0xE DUP4 PUSH2 0xE3 JUMP JUMPDEST SWAP2 POP PUSH2 0x135 DUP3 PUSH2 0xF4 JUMP JUMPDEST PUSH1 0x20 DUP3 ADD SWAP1 POP SWAP2 SWAP1 POP JUMP JUMPDEST PUSH1 0x0 PUSH1 0x20 DUP3 ADD SWAP1 POP DUP2 DUP2 SUB PUSH1 0x0 DUP4 ADD MSTORE PUSH2 0x159 DUP2 PUSH2 0x11D JUMP JUMPDEST SWAP1 POP SWAP2 SWAP1 POP JUMP INVALID LOG2 PUSH5 0x6970667358 0x22 SLT KECCAK256 SWAP11 0xC6 DUP11 TIMESTAMP LOG1 0xE1 0x4C OR LOG0 0xBA SGT 0xA8 0x2D NUMBER 0xC 0xA9 DUP11 0x27 SUB SWAP6 CREATE 0xB3 0x26 0x2F 0xBB 0x27 BYTE GASPRICE 0xC0 DUP4 DUP2 PUSH6 0x64736F6C6343 STOP ADDMOD EXP STOP CALLER "},"methodIdentifiers":{"createHero(uint8)":"5e7e236d"}}}}}