{
  "_format": "hh-sol-artifact-1",
  "contractName": "Counter",
  "sourceName": "contracts/Counter.sol",
  "abi": [
    {
      "anonymous": false,
      "inputs": [
        {
          "indexed": true,
          "internalType": "uint256",
          "name": "counter",
          "type": "uint256"
        }
      ],
      "name": "CounterInc",
      "type": "event"
    },
    {
      "inputs": [],
      "name": "count",
      "outputs": [],
      "stateMutability": "nonpayable",
      "type": "function"
    },
    {
      "inputs": [],
      "name": "getCounter",
      "outputs": [
        {
          "internalType": "uint32",
          "name": "",
          "type": "uint32"
        }
      ],
      "stateMutability": "view",
      "type": "function"
    }
  ],
  "bytecode": "0x608060405234801561001057600080fd5b5061041f806100206000396000f3fe608060405234801561001057600080fd5b50600436106100365760003560e01c806306661abd1461003b5780638ada066e14610045575b600080fd5b610043610063565b005b61004d61013d565b60405161005a9190610261565b60405180910390f35b60008081819054906101000a900463ffffffff1680929190610084906102ab565b91906101000a81548163ffffffff021916908363ffffffff160217905550506100f86040518060400160405280600f81526020017f636f756e746572206973206e6f7720000000000000000000000000000000000081525060008054906101000a900463ffffffff1663ffffffff16610156565b60008054906101000a900463ffffffff1663ffffffff167feec7b728df2430a6685bba924a4a787b147d45a2b38034570f9fe9613a91ea4460405160405180910390a2565b60008060009054906101000a900463ffffffff16905090565b6101ee828260405160240161016c92919061038a565b6040516020818303038152906040527fb60e72cc000000000000000000000000000000000000000000000000000000007bffffffffffffffffffffffffffffffffffffffffffffffffffffffff19166020820180517bffffffffffffffffffffffffffffffffffffffffffffffffffffffff83818316178352505050506101f2565b5050565b6102098161020161020c61022d565b63ffffffff16565b50565b60006a636f6e736f6c652e6c6f679050600080835160208501845afa505050565b610238819050919050565b6102406103ba565b565b600063ffffffff82169050919050565b61025b81610242565b82525050565b60006020820190506102766000830184610252565b92915050565b7f4e487b7100000000000000000000000000000000000000000000000000000000600052601160045260246000fd5b60006102b682610242565b915063ffffffff8214156102cd576102cc61027c565b5b600182019050919050565b600081519050919050565b600082825260208201905092915050565b60005b838110156103125780820151818401526020810190506102f7565b83811115610321576000848401525b50505050565b6000601f19601f8301169050919050565b6000610343826102d8565b61034d81856102e3565b935061035d8185602086016102f4565b61036681610327565b840191505092915050565b6000819050919050565b61038481610371565b82525050565b600060408201905081810360008301526103a48185610338565b90506103b3602083018461037b565b9392505050565b7f4e487b7100000000000000000000000000000000000000000000000000000000600052605160045260246000fdfea2646970667358221220330e42357f2f3721138cf331cb621118be2c8f97c5d79a12fb267ed98b7b3da664736f6c634300080a0033",
  "linkReferences": {},
  "deployedLinkReferences": {}
}