{
  "_format": "hh-sol-artifact-1",
  "contractName": "Counter",
  "sourceName": "contracts/Counter.sol",
  "abi": [
    {
      "inputs": [],
      "name": "count",
      "outputs": [],
      "stateMutability": "nonpayable",
      "type": "function"
    },
    {
      "inputs": [],
      "name": "getCounter",
      "outputs": [
        {
          "internalType": "uint32",
          "name": "",
          "type": "uint32"
        }
      ],
      "stateMutability": "view",
      "type": "function"
    }
  ],
  "bytecode": "0x608060405234801561001057600080fd5b506103dc806100206000396000f3fe608060405234801561001057600080fd5b50600436106100365760003560e01c806306661abd1461003b5780638ada066e14610045575b600080fd5b610043610063565b005b61004d6100fa565b60405161005a919061021e565b60405180910390f35b60008081819054906101000a900463ffffffff168092919061008490610268565b91906101000a81548163ffffffff021916908363ffffffff160217905550506100f86040518060400160405280600f81526020017f636f756e746572206973206e6f7720000000000000000000000000000000000081525060008054906101000a900463ffffffff1663ffffffff16610113565b565b60008060009054906101000a900463ffffffff16905090565b6101ab8282604051602401610129929190610347565b6040516020818303038152906040527fb60e72cc000000000000000000000000000000000000000000000000000000007bffffffffffffffffffffffffffffffffffffffffffffffffffffffff19166020820180517bffffffffffffffffffffffffffffffffffffffffffffffffffffffff83818316178352505050506101af565b5050565b6101c6816101be6101c96101ea565b63ffffffff16565b50565b60006a636f6e736f6c652e6c6f679050600080835160208501845afa505050565b6101f5819050919050565b6101fd610377565b565b600063ffffffff82169050919050565b610218816101ff565b82525050565b6000602082019050610233600083018461020f565b92915050565b7f4e487b7100000000000000000000000000000000000000000000000000000000600052601160045260246000fd5b6000610273826101ff565b915063ffffffff82141561028a57610289610239565b5b600182019050919050565b600081519050919050565b600082825260208201905092915050565b60005b838110156102cf5780820151818401526020810190506102b4565b838111156102de576000848401525b50505050565b6000601f19601f8301169050919050565b600061030082610295565b61030a81856102a0565b935061031a8185602086016102b1565b610323816102e4565b840191505092915050565b6000819050919050565b6103418161032e565b82525050565b6000604082019050818103600083015261036181856102f5565b90506103706020830184610338565b9392505050565b7f4e487b7100000000000000000000000000000000000000000000000000000000600052605160045260246000fdfea264697066735822122016efc2807023b852b3b92c2f6a2eaa0f6d12718996045e190e059a824e474c1e64736f6c634300080a0033",
  "linkReferences": {},
  "deployedLinkReferences": {}
}